{
  "contractName": "Voting",
  "abi": [
    {
      "anonymous": false,
      "inputs": [
        {
          "indexed": true,
          "internalType": "address",
          "name": "previousOwner",
          "type": "address"
        },
        {
          "indexed": true,
          "internalType": "address",
          "name": "newOwner",
          "type": "address"
        }
      ],
      "name": "OwnershipTransferred",
      "type": "event"
    },
    {
      "anonymous": false,
      "inputs": [
        {
          "indexed": false,
          "internalType": "uint256",
          "name": "proposalId",
          "type": "uint256"
        }
      ],
      "name": "ProposalRegistered",
      "type": "event"
    },
    {
      "anonymous": false,
      "inputs": [],
      "name": "ProposalsRegistrationEnded",
      "type": "event"
    },
    {
      "anonymous": false,
      "inputs": [],
      "name": "ProposalsRegistrationStarted",
      "type": "event"
    },
    {
      "anonymous": false,
      "inputs": [
        {
          "indexed": false,
          "internalType": "address",
          "name": "voter",
          "type": "address"
        },
        {
          "indexed": false,
          "internalType": "uint256",
          "name": "proposalId",
          "type": "uint256"
        }
      ],
      "name": "Voted",
      "type": "event"
    },
    {
      "anonymous": false,
      "inputs": [
        {
          "indexed": false,
          "internalType": "address",
          "name": "voterAddress",
          "type": "address"
        }
      ],
      "name": "VoterRegistered",
      "type": "event"
    },
    {
      "anonymous": false,
      "inputs": [],
      "name": "VotesTallied",
      "type": "event"
    },
    {
      "anonymous": false,
      "inputs": [],
      "name": "VotingSessionEnded",
      "type": "event"
    },
    {
      "anonymous": false,
      "inputs": [],
      "name": "VotingSessionStarted",
      "type": "event"
    },
    {
      "anonymous": false,
      "inputs": [
        {
          "indexed": false,
          "internalType": "enum Voting.WorkflowStatus",
          "name": "previousStatus",
          "type": "uint8"
        },
        {
          "indexed": false,
          "internalType": "enum Voting.WorkflowStatus",
          "name": "newStatus",
          "type": "uint8"
        }
      ],
      "name": "WorkflowStatusChange",
      "type": "event"
    },
    {
      "inputs": [],
      "name": "owner",
      "outputs": [
        {
          "internalType": "address",
          "name": "",
          "type": "address"
        }
      ],
      "stateMutability": "view",
      "type": "function",
      "constant": true
    },
    {
      "inputs": [
        {
          "internalType": "uint256",
          "name": "",
          "type": "uint256"
        }
      ],
      "name": "proposals",
      "outputs": [
        {
          "internalType": "string",
          "name": "description",
          "type": "string"
        },
        {
          "internalType": "uint256",
          "name": "voteCount",
          "type": "uint256"
        }
      ],
      "stateMutability": "view",
      "type": "function",
      "constant": true
    },
    {
      "inputs": [],
      "name": "renounceOwnership",
      "outputs": [],
      "stateMutability": "nonpayable",
      "type": "function"
    },
    {
      "inputs": [
        {
          "internalType": "address",
          "name": "newOwner",
          "type": "address"
        }
      ],
      "name": "transferOwnership",
      "outputs": [],
      "stateMutability": "nonpayable",
      "type": "function"
    },
    {
      "inputs": [],
      "name": "winningProposal",
      "outputs": [
        {
          "internalType": "string",
          "name": "description",
          "type": "string"
        },
        {
          "internalType": "uint256",
          "name": "voteCount",
          "type": "uint256"
        }
      ],
      "stateMutability": "view",
      "type": "function",
      "constant": true
    },
    {
      "inputs": [
        {
          "internalType": "address",
          "name": "_address",
          "type": "address"
        }
      ],
      "name": "registeringUsers",
      "outputs": [],
      "stateMutability": "nonpayable",
      "type": "function"
    },
    {
      "inputs": [],
      "name": "openProposaRegistration",
      "outputs": [],
      "stateMutability": "nonpayable",
      "type": "function"
    },
    {
      "inputs": [],
      "name": "closeProposalRegistration",
      "outputs": [],
      "stateMutability": "nonpayable",
      "type": "function"
    },
    {
      "inputs": [
        {
          "internalType": "string",
          "name": "description",
          "type": "string"
        }
      ],
      "name": "makeProposal",
      "outputs": [],
      "stateMutability": "nonpayable",
      "type": "function"
    },
    {
      "inputs": [],
      "name": "openVoteSession",
      "outputs": [],
      "stateMutability": "nonpayable",
      "type": "function"
    },
    {
      "inputs": [],
      "name": "closeVoteSession",
      "outputs": [],
      "stateMutability": "nonpayable",
      "type": "function"
    },
    {
      "inputs": [
        {
          "internalType": "uint256",
          "name": "_proposalId",
          "type": "uint256"
        }
      ],
      "name": "voteForProposal",
      "outputs": [],
      "stateMutability": "nonpayable",
      "type": "function"
    },
    {
      "inputs": [],
      "name": "processVoteResults",
      "outputs": [],
      "stateMutability": "nonpayable",
      "type": "function"
    },
    {
      "inputs": [],
      "name": "getWinningProposal",
      "outputs": [
        {
          "components": [
            {
              "internalType": "string",
              "name": "description",
              "type": "string"
            },
            {
              "internalType": "uint256",
              "name": "voteCount",
              "type": "uint256"
            }
          ],
          "internalType": "struct Voting.Proposal",
          "name": "",
          "type": "tuple"
        }
      ],
      "stateMutability": "view",
      "type": "function",
      "constant": true
    },
    {
      "inputs": [],
      "name": "getCurrentWorkflowStatus",
      "outputs": [
        {
          "internalType": "enum Voting.WorkflowStatus",
          "name": "",
          "type": "uint8"
        }
      ],
      "stateMutability": "view",
      "type": "function",
      "constant": true
    },
    {
      "inputs": [],
      "name": "getProposals",
      "outputs": [
        {
          "components": [
            {
              "internalType": "string",
              "name": "description",
              "type": "string"
            },
            {
              "internalType": "uint256",
              "name": "voteCount",
              "type": "uint256"
            }
          ],
          "internalType": "struct Voting.Proposal[]",
          "name": "",
          "type": "tuple[]"
        }
      ],
      "stateMutability": "view",
      "type": "function",
      "constant": true
    },
    {
      "inputs": [],
      "name": "getVotersAdresses",
      "outputs": [
        {
          "internalType": "address[]",
          "name": "",
          "type": "address[]"
        }
      ],
      "stateMutability": "view",
      "type": "function",
      "constant": true
    },
    {
      "inputs": [
        {
          "internalType": "address",
          "name": "_address",
          "type": "address"
        }
      ],
      "name": "getVoter",
      "outputs": [
        {
          "components": [
            {
              "internalType": "bool",
              "name": "isRegistered",
              "type": "bool"
            },
            {
              "internalType": "bool",
              "name": "hasVoted",
              "type": "bool"
            },
            {
              "internalType": "uint256",
              "name": "votedProposalId",
              "type": "uint256"
            }
          ],
          "internalType": "struct Voting.Voter",
          "name": "",
          "type": "tuple"
        }
      ],
      "stateMutability": "view",
      "type": "function",
      "constant": true
    }
  ],
  "bytecode": "0x60806040523480156200001157600080fd5b50620000446200002f6200004a640100000000026401000000009004565b62000052640100000000026401000000009004565b62000116565b600033905090565b60008060009054906101000a900473ffffffffffffffffffffffffffffffffffffffff169050816000806101000a81548173ffffffffffffffffffffffffffffffffffffffff021916908373ffffffffffffffffffffffffffffffffffffffff1602179055508173ffffffffffffffffffffffffffffffffffffffff168173ffffffffffffffffffffffffffffffffffffffff167f8be0079c531659141344cd1fd0a4f28419497f9722a3daafe3b4186f6b6457e060405160405180910390a35050565b612a8880620001266000396000f3fe608060405234801561001057600080fd5b5060043610610133576000357c0100000000000000000000000000000000000000000000000000000000900480638da5cb5b116100bf578063b72a70741161008e578063b72a70741461026a578063bd0434d414610286578063d4f50f98146102a4578063d60a08eb146102d4578063f2fde38b146102de57610133565b80638da5cb5b14610206578063a513462014610224578063ab014bda14610242578063af7c41a01461024c57610133565b8063609ff1bd11610106578063609ff1bd1461019957806362564c48146101b8578063715018a6146101d65780637aa503c1146101e05780637d919f68146101fc57610133565b8063013cf08b14610138578063045c6ce01461016957806307fa315f146101855780632e3af1131461018f575b600080fd5b610152600480360381019061014d9190611c60565b6102fa565b604051610160929190611d35565b60405180910390f35b610183600480360381019061017e9190611c60565b6103b6565b005b61018d610664565b005b610197610832565b005b6101a1610950565b6040516101af929190611d35565b60405180910390f35b6101c06109ea565b6040516101cd9190611ebd565b60405180910390f35b6101de610ae5565b005b6101fa60048036038101906101f59190611f3d565b610b6d565b005b610204610ef6565b005b61020e61107c565b60405161021b9190611f79565b60405180910390f35b61022c6110a5565b6040516102399190611fd1565b60405180910390f35b61024a6111f2565b005b610254611302565b604051610261919061206a565b60405180910390f35b610284600480360381019061027f91906121ba565b611319565b005b61028e6114cd565b60405161029b91906122c1565b60405180910390f35b6102be60048036038101906102b99190611f3d565b61155b565b6040516102cb9190612340565b60405180910390f35b6102dc6115f4565b005b6102f860048036038101906102f39190611f3d565b611850565b005b6006818154811061030a57600080fd5b906000526020600020906002020160009150905080600001805461032d9061238a565b80601f01602080910402602001604051908101604052809291908181526020018280546103599061238a565b80156103a65780601f1061037b576101008083540402835291602001916103a6565b820191906000526020600020905b81548152906001019060200180831161038957829003601f168201915b5050505050908060010154905082565b600160003373ffffffffffffffffffffffffffffffffffffffff1673ffffffffffffffffffffffffffffffffffffffff16815260200190815260200160002060000160009054906101000a900460ff16610445576040517f08c379a000000000000000000000000000000000000000000000000000000000815260040161043c9061242e565b60405180910390fd5b6003600581111561045957610458611ff3565b5b600760009054906101000a900460ff16600581111561047b5761047a611ff3565b5b146104bb576040517f08c379a00000000000000000000000000000000000000000000000000000000081526004016104b29061249a565b60405180910390fd5b600160003373ffffffffffffffffffffffffffffffffffffffff1673ffffffffffffffffffffffffffffffffffffffff16815260200190815260200160002060000160019054906101000a900460ff161561054b576040517f08c379a000000000000000000000000000000000000000000000000000000000815260040161054290612506565b60405180910390fd5b600680549050811115610593576040517f08c379a000000000000000000000000000000000000000000000000000000000815260040161058a90612572565b60405180910390fd5b600681815481106105a7576105a6612592565b5b906000526020600020906002020160010160008154809291906105c9906125f0565b919050555060018060003373ffffffffffffffffffffffffffffffffffffffff1673ffffffffffffffffffffffffffffffffffffffff16815260200190815260200160002060000160016101000a81548160ff0219169083151502179055507f4d99b957a2bc29a30ebd96a7be8e68fe50a3c701db28a91436490b7d53870ca43382604051610659929190612639565b60405180910390a150565b61066c611948565b73ffffffffffffffffffffffffffffffffffffffff1661068a61107c565b73ffffffffffffffffffffffffffffffffffffffff16146106e0576040517f08c379a00000000000000000000000000000000000000000000000000000000081526004016106d7906126ae565b60405180910390fd5b600160058111156106f4576106f3611ff3565b5b600760009054906101000a900460ff16600581111561071657610715611ff3565b5b14610756576040517f08c379a000000000000000000000000000000000000000000000000000000000815260040161074d9061271a565b60405180910390fd5b60006006805490501161079e576040517f08c379a0000000000000000000000000000000000000000000000000000000008152600401610795906127ac565b60405180910390fd5b6002600760006101000a81548160ff021916908360058111156107c4576107c3611ff3565b5b02179055507f240cb87b2e4df4c318e72bd714d45a9cad60249e883ff56b1fffd83a4595a8fa60405160405180910390a17f0a97a4ee45751e2abf3e4fc8946939630b11b371ea8ae39ccdc3056e98f5cc3f600160026040516108289291906127cc565b60405180910390a1565b61083a611948565b73ffffffffffffffffffffffffffffffffffffffff1661085861107c565b73ffffffffffffffffffffffffffffffffffffffff16146108ae576040517f08c379a00000000000000000000000000000000000000000000000000000000081526004016108a5906126ae565b60405180910390fd5b6001600760006101000a81548160ff021916908360058111156108d4576108d3611ff3565b5b0217905550600660006108e79190611a14565b7f344c25562921d075a298d34b6dd1fd00d36ff293974539dfd4a8c625d9f0064c60405160405180910390a17f0a97a4ee45751e2abf3e4fc8946939630b11b371ea8ae39ccdc3056e98f5cc3f600260016040516109469291906127cc565b60405180910390a1565b60048060000180546109619061238a565b80601f016020809104026020016040519081016040528092919081815260200182805461098d9061238a565b80156109da5780601f106109af576101008083540402835291602001916109da565b820191906000526020600020905b8154815290600101906020018083116109bd57829003601f168201915b5050505050908060010154905082565b60606006805480602002602001604051908101604052809291908181526020016000905b82821015610adc5783829060005260206000209060020201604051806040016040529081600082018054610a419061238a565b80601f0160208091040260200160405190810160405280929190818152602001828054610a6d9061238a565b8015610aba5780601f10610a8f57610100808354040283529160200191610aba565b820191906000526020600020905b815481529060010190602001808311610a9d57829003601f168201915b5050505050815260200160018201548152505081526020019060010190610a0e565b50505050905090565b610aed611948565b73ffffffffffffffffffffffffffffffffffffffff16610b0b61107c565b73ffffffffffffffffffffffffffffffffffffffff1614610b61576040517f08c379a0000000000000000000000000000000000000000000000000000000008152600401610b58906126ae565b60405180910390fd5b610b6b6000611950565b565b610b75611948565b73ffffffffffffffffffffffffffffffffffffffff16610b9361107c565b73ffffffffffffffffffffffffffffffffffffffff1614610be9576040517f08c379a0000000000000000000000000000000000000000000000000000000008152600401610be0906126ae565b60405180910390fd5b600160008273ffffffffffffffffffffffffffffffffffffffff1673ffffffffffffffffffffffffffffffffffffffff16815260200190815260200160002060000160009054906101000a900460ff1615610c79576040517f08c379a0000000000000000000000000000000000000000000000000000000008152600401610c7090612841565b60405180910390fd5b60016005811115610c8d57610c8c611ff3565b5b600760009054906101000a900460ff166005811115610caf57610cae611ff3565b5b14158015610cf1575060026005811115610ccc57610ccb611ff3565b5b600760009054906101000a900460ff166005811115610cee57610ced611ff3565b5b14155b8015610d31575060036005811115610d0c57610d0b611ff3565b5b600760009054906101000a900460ff166005811115610d2e57610d2d611ff3565b5b14155b8015610d71575060046005811115610d4c57610d4b611ff3565b5b600760009054906101000a900460ff166005811115610d6e57610d6d611ff3565b5b14155b610d7a57600080fd5b6000600760006101000a81548160ff02191690836005811115610da057610d9f611ff3565b5b0217905550600060405180606001604052806001151581526020016000151581526020016000815250905080600160008473ffffffffffffffffffffffffffffffffffffffff1673ffffffffffffffffffffffffffffffffffffffff16815260200190815260200160002060008201518160000160006101000a81548160ff02191690831515021790555060208201518160000160016101000a81548160ff021916908315150217905550604082015181600101559050506002829080600181540180825580915050600190039060005260206000200160009091909190916101000a81548173ffffffffffffffffffffffffffffffffffffffff021916908373ffffffffffffffffffffffffffffffffffffffff1602179055507fb6be2187d059cc2a55fe29e0e503b566e1e0f8c8780096e185429350acffd3dd82604051610eea9190611f79565b60405180910390a15050565b610efe611948565b73ffffffffffffffffffffffffffffffffffffffff16610f1c61107c565b73ffffffffffffffffffffffffffffffffffffffff1614610f72576040517f08c379a0000000000000000000000000000000000000000000000000000000008152600401610f69906126ae565b60405180910390fd5b60036005811115610f8657610f85611ff3565b5b600760009054906101000a900460ff166005811115610fa857610fa7611ff3565b5b14610fe8576040517f08c379a0000000000000000000000000000000000000000000000000000000008152600401610fdf9061249a565b60405180910390fd5b6004600760006101000a81548160ff0219169083600581111561100e5761100d611ff3565b5b02179055507fc379d349a6301baf50fb2f98d829f4ae10b1cdb7c66f4e4d8117302df7b8cd4c60405160405180910390a17f0a97a4ee45751e2abf3e4fc8946939630b11b371ea8ae39ccdc3056e98f5cc3f600360046040516110729291906127cc565b60405180910390a1565b60008060009054906101000a900473ffffffffffffffffffffffffffffffffffffffff16905090565b6110ad611a38565b6005808111156110c0576110bf611ff3565b5b600760009054906101000a900460ff1660058111156110e2576110e1611ff3565b5b14611122576040517f08c379a0000000000000000000000000000000000000000000000000000000008152600401611119906128ad565b60405180910390fd5b60066003548154811061113857611137612592565b5b90600052602060002090600202016040518060400160405290816000820180546111619061238a565b80601f016020809104026020016040519081016040528092919081815260200182805461118d9061238a565b80156111da5780601f106111af576101008083540402835291602001916111da565b820191906000526020600020905b8154815290600101906020018083116111bd57829003601f168201915b50505050508152602001600182015481525050905090565b6111fa611948565b73ffffffffffffffffffffffffffffffffffffffff1661121861107c565b73ffffffffffffffffffffffffffffffffffffffff161461126e576040517f08c379a0000000000000000000000000000000000000000000000000000000008152600401611265906126ae565b60405180910390fd5b6003600760006101000a81548160ff0219169083600581111561129457611293611ff3565b5b02179055507f1b8e19a458c1bcd88553332c518cc5c4e2d5793e712ee766d4f1c14f672ef1f560405160405180910390a17f0a97a4ee45751e2abf3e4fc8946939630b11b371ea8ae39ccdc3056e98f5cc3f600260036040516112f89291906127cc565b60405180910390a1565b6000600760009054906101000a900460ff16905090565b6001600581111561132d5761132c611ff3565b5b600760009054906101000a900460ff16600581111561134f5761134e611ff3565b5b1461138f576040517f08c379a000000000000000000000000000000000000000000000000000000000815260040161138690612919565b60405180910390fd5b600160003373ffffffffffffffffffffffffffffffffffffffff1673ffffffffffffffffffffffffffffffffffffffff16815260200190815260200160002060000160009054906101000a900460ff1661141e576040517f08c379a00000000000000000000000000000000000000000000000000000000081526004016114159061242e565b60405180910390fd5b600060405180604001604052808381526020016000815250905060068190806001815401808255809150506001900390600052602060002090600202016000909190919091506000820151816000019080519060200190611480929190611a52565b506020820151816001015550507f92e393e9b54e2f801d3ea4beb0c5e71a21cc34a5d34b77d0fb8a3aa1650dc18f6006805490506040516114c19190612939565b60405180910390a15050565b6060600280548060200260200160405190810160405280929190818152602001828054801561155157602002820191906000526020600020905b8160009054906101000a900473ffffffffffffffffffffffffffffffffffffffff1673ffffffffffffffffffffffffffffffffffffffff1681526020019060010190808311611507575b5050505050905090565b611563611ad8565b600160008373ffffffffffffffffffffffffffffffffffffffff1673ffffffffffffffffffffffffffffffffffffffff1681526020019081526020016000206040518060600160405290816000820160009054906101000a900460ff161515151581526020016000820160019054906101000a900460ff161515151581526020016001820154815250509050919050565b6115fc611948565b73ffffffffffffffffffffffffffffffffffffffff1661161a61107c565b73ffffffffffffffffffffffffffffffffffffffff1614611670576040517f08c379a0000000000000000000000000000000000000000000000000000000008152600401611667906126ae565b60405180910390fd5b6004600581111561168457611683611ff3565b5b600760009054906101000a900460ff1660058111156116a6576116a5611ff3565b5b146116e6576040517f08c379a00000000000000000000000000000000000000000000000000000000081526004016116dd906129a0565b60405180910390fd5b6005600760006101000a81548160ff0219169083600581111561170c5761170b611ff3565b5b02179055506000805b6006805490508110156117e557816006828154811061173757611736612592565b5b90600052602060002090600202016001015411156117d2576006818154811061176357611762612592565b5b90600052602060002090600202016001015491508060038190555060066003548154811061179457611793612592565b5b9060005260206000209060020201600460008201816000019080546117b89061238a565b6117c3929190611afd565b50600182015481600101559050505b80806117dd906125f0565b915050611715565b507f0e5e95ff8725ab3e7a4b6b59998a4c344c2aa8d1485f5e60cb7f337768e6134760405160405180910390a17f0a97a4ee45751e2abf3e4fc8946939630b11b371ea8ae39ccdc3056e98f5cc3f600460056040516118459291906127cc565b60405180910390a150565b611858611948565b73ffffffffffffffffffffffffffffffffffffffff1661187661107c565b73ffffffffffffffffffffffffffffffffffffffff16146118cc576040517f08c379a00000000000000000000000000000000000000000000000000000000081526004016118c3906126ae565b60405180910390fd5b600073ffffffffffffffffffffffffffffffffffffffff168173ffffffffffffffffffffffffffffffffffffffff16141561193c576040517f08c379a000000000000000000000000000000000000000000000000000000000815260040161193390612a32565b60405180910390fd5b61194581611950565b50565b600033905090565b60008060009054906101000a900473ffffffffffffffffffffffffffffffffffffffff169050816000806101000a81548173ffffffffffffffffffffffffffffffffffffffff021916908373ffffffffffffffffffffffffffffffffffffffff1602179055508173ffffffffffffffffffffffffffffffffffffffff168173ffffffffffffffffffffffffffffffffffffffff167f8be0079c531659141344cd1fd0a4f28419497f9722a3daafe3b4186f6b6457e060405160405180910390a35050565b5080546000825560020290600052602060002090810190611a359190611b8a565b50565b604051806040016040528060608152602001600081525090565b828054611a5e9061238a565b90600052602060002090601f016020900481019282611a805760008555611ac7565b82601f10611a9957805160ff1916838001178555611ac7565b82800160010185558215611ac7579182015b82811115611ac6578251825591602001919060010190611aab565b5b509050611ad49190611bb9565b5090565b6040518060600160405280600015158152602001600015158152602001600081525090565b828054611b099061238a565b90600052602060002090601f016020900481019282611b2b5760008555611b79565b82601f10611b3c5780548555611b79565b82800160010185558215611b7957600052602060002091601f016020900482015b82811115611b78578254825591600101919060010190611b5d565b5b509050611b869190611bb9565b5090565b5b80821115611bb55760008082016000611ba49190611bd6565b600182016000905550600201611b8b565b5090565b5b80821115611bd2576000816000905550600101611bba565b5090565b508054611be29061238a565b6000825580601f10611bf45750611c13565b601f016020900490600052602060002090810190611c129190611bb9565b5b50565b6000604051905090565b600080fd5b600080fd5b6000819050919050565b611c3d81611c2a565b8114611c4857600080fd5b50565b600081359050611c5a81611c34565b92915050565b600060208284031215611c7657611c75611c20565b5b6000611c8484828501611c4b565b91505092915050565b600081519050919050565b600082825260208201905092915050565b60005b83811015611cc7578082015181840152602081019050611cac565b83811115611cd6576000848401525b50505050565b6000601f19601f8301169050919050565b6000611cf882611c8d565b611d028185611c98565b9350611d12818560208601611ca9565b611d1b81611cdc565b840191505092915050565b611d2f81611c2a565b82525050565b60006040820190508181036000830152611d4f8185611ced565b9050611d5e6020830184611d26565b9392505050565b600081519050919050565b600082825260208201905092915050565b6000819050602082019050919050565b600082825260208201905092915050565b6000611dad82611c8d565b611db78185611d91565b9350611dc7818560208601611ca9565b611dd081611cdc565b840191505092915050565b611de481611c2a565b82525050565b60006040830160008301518482036000860152611e078282611da2565b9150506020830151611e1c6020860182611ddb565b508091505092915050565b6000611e338383611dea565b905092915050565b6000602082019050919050565b6000611e5382611d65565b611e5d8185611d70565b935083602082028501611e6f85611d81565b8060005b85811015611eab5784840389528151611e8c8582611e27565b9450611e9783611e3b565b925060208a01995050600181019050611e73565b50829750879550505050505092915050565b60006020820190508181036000830152611ed78184611e48565b905092915050565b600073ffffffffffffffffffffffffffffffffffffffff82169050919050565b6000611f0a82611edf565b9050919050565b611f1a81611eff565b8114611f2557600080fd5b50565b600081359050611f3781611f11565b92915050565b600060208284031215611f5357611f52611c20565b5b6000611f6184828501611f28565b91505092915050565b611f7381611eff565b82525050565b6000602082019050611f8e6000830184611f6a565b92915050565b60006040830160008301518482036000860152611fb18282611da2565b9150506020830151611fc66020860182611ddb565b508091505092915050565b60006020820190508181036000830152611feb8184611f94565b905092915050565b7f4e487b7100000000000000000000000000000000000000000000000000000000600052602160045260246000fd5b6006811061203357612032611ff3565b5b50565b600081905061204482612022565b919050565b600061205482612036565b9050919050565b61206481612049565b82525050565b600060208201905061207f600083018461205b565b92915050565b600080fd5b600080fd5b7f4e487b7100000000000000000000000000000000000000000000000000000000600052604160045260246000fd5b6120c782611cdc565b810181811067ffffffffffffffff821117156120e6576120e561208f565b5b80604052505050565b60006120f9611c16565b905061210582826120be565b919050565b600067ffffffffffffffff8211156121255761212461208f565b5b61212e82611cdc565b9050602081019050919050565b82818337600083830152505050565b600061215d6121588461210a565b6120ef565b9050828152602081018484840111156121795761217861208a565b5b61218484828561213b565b509392505050565b600082601f8301126121a1576121a0612085565b5b81356121b184826020860161214a565b91505092915050565b6000602082840312156121d0576121cf611c20565b5b600082013567ffffffffffffffff8111156121ee576121ed611c25565b5b6121fa8482850161218c565b91505092915050565b600081519050919050565b600082825260208201905092915050565b6000819050602082019050919050565b61223881611eff565b82525050565b600061224a838361222f565b60208301905092915050565b6000602082019050919050565b600061226e82612203565b612278818561220e565b93506122838361221f565b8060005b838110156122b457815161229b888261223e565b97506122a683612256565b925050600181019050612287565b5085935050505092915050565b600060208201905081810360008301526122db8184612263565b905092915050565b60008115159050919050565b6122f8816122e3565b82525050565b60608201600082015161231460008501826122ef565b50602082015161232760208501826122ef565b50604082015161233a6040850182611ddb565b50505050565b600060608201905061235560008301846122fe565b92915050565b7f4e487b7100000000000000000000000000000000000000000000000000000000600052602260045260246000fd5b600060028204905060018216806123a257607f821691505b602082108114156123b6576123b561235b565b5b50919050565b7f416374696f6e206e6f7420616c6c6f77656420666f722074686973206164647260008201527f6573730000000000000000000000000000000000000000000000000000000000602082015250565b6000612418602383611c98565b9150612423826123bc565b604082019050919050565b600060208201905081810360008301526124478161240b565b9050919050565b7f566f74696e672053657373696f6e206e6f742073746172746564000000000000600082015250565b6000612484601a83611c98565b915061248f8261244e565b602082019050919050565b600060208201905081810360008301526124b381612477565b9050919050565b7f566f746520616c7265647920646f6e6500000000000000000000000000000000600082015250565b60006124f0601083611c98565b91506124fb826124ba565b602082019050919050565b6000602082019050818103600083015261251f816124e3565b9050919050565b7f50726f706f73616c206e6f7420666f756e640000000000000000000000000000600082015250565b600061255c601283611c98565b915061256782612526565b602082019050919050565b6000602082019050818103600083015261258b8161254f565b9050919050565b7f4e487b7100000000000000000000000000000000000000000000000000000000600052603260045260246000fd5b7f4e487b7100000000000000000000000000000000000000000000000000000000600052601160045260246000fd5b60006125fb82611c2a565b91507fffffffffffffffffffffffffffffffffffffffffffffffffffffffffffffffff82141561262e5761262d6125c1565b5b600182019050919050565b600060408201905061264e6000830185611f6a565b61265b6020830184611d26565b9392505050565b7f4f776e61626c653a2063616c6c6572206973206e6f7420746865206f776e6572600082015250565b6000612698602083611c98565b91506126a382612662565b602082019050919050565b600060208201905081810360008301526126c78161268b565b9050919050565b7f53657373696f6e206e65656420746f206265206f70656e656420210000000000600082015250565b6000612704601b83611c98565b915061270f826126ce565b602082019050919050565b60006020820190508181036000830152612733816126f7565b9050919050565b7f43616e6e6f7420636c6f73652053657373696f6e20776974686f75742070726f60008201527f706f73616c202100000000000000000000000000000000000000000000000000602082015250565b6000612796602783611c98565b91506127a18261273a565b604082019050919050565b600060208201905081810360008301526127c581612789565b9050919050565b60006040820190506127e1600083018561205b565b6127ee602083018461205b565b9392505050565b7f4578697374696e67204164647265737320210000000000000000000000000000600082015250565b600061282b601283611c98565b9150612836826127f5565b602082019050919050565b6000602082019050818103600083015261285a8161281e565b9050919050565b7f566f7465206e65656420746f2062652054616c6c696564000000000000000000600082015250565b6000612897601783611c98565b91506128a282612861565b602082019050919050565b600060208201905081810360008301526128c68161288a565b9050919050565b7f50726f706f73616c2053657373696f6e206e6f74206f70656e65640000000000600082015250565b6000612903601b83611c98565b915061290e826128cd565b602082019050919050565b60006020820190508181036000830152612932816128f6565b9050919050565b600060208201905061294e6000830184611d26565b92915050565b7f566f74696e672053657373696f6e206e6f7420656e6465642021000000000000600082015250565b600061298a601a83611c98565b915061299582612954565b602082019050919050565b600060208201905081810360008301526129b98161297d565b9050919050565b7f4f776e61626c653a206e6577206f776e657220697320746865207a65726f206160008201527f6464726573730000000000000000000000000000000000000000000000000000602082015250565b6000612a1c602683611c98565b9150612a27826129c0565b604082019050919050565b60006020820190508181036000830152612a4b81612a0f565b905091905056fea264697066735822122058cd37b8e0f45bcfdc222e43a43454b418b113e4141a6c55abca25d714a7dd7164736f6c63430008090033",
  "immutableReferences": {},
  "source": "// SPDX-License-Identifier: MIT\r\npragma solidity >=0.8.0;\r\n\r\n//External libs\r\nimport \"@OpenZeppelin/contracts/access/Ownable.sol\";\r\n\r\n\r\n/// @title Formation Alyra \"Dfi 02 - Systme de vote\"\r\n/// @author Stphane Dorlac\r\ncontract Voting is Ownable{\r\n\r\n// ======  Entities  ====== \r\nstruct Voter {\r\n    bool isRegistered;\r\n    bool hasVoted;\r\n    uint votedProposalId;\r\n}\r\n\r\nstruct Proposal {\r\n    string description;\r\n    uint voteCount;\r\n}    \r\n\r\n// ====== Enumerations ======\r\nenum WorkflowStatus {\r\n    RegisteringVoters,\r\n    ProposalsRegistrationStarted,\r\n    ProposalsRegistrationEnded,\r\n    VotingSessionStarted,\r\n    VotingSessionEnded,\r\n    VotesTallied\r\n}\r\n\r\n// ====== variables ====== \r\nmapping (address => Voter) private _voters; //only users in whitelist can propose and vote\r\naddress[] private votersAddresses;\r\nuint winningProposalId;\r\nProposal public winningProposal; \r\nProposal[] public proposals;\r\nWorkflowStatus _workflowStatus;\r\n\r\n// ====== Events ====== \r\nevent VoterRegistered(address voterAddress);\r\nevent ProposalsRegistrationStarted();\r\nevent ProposalsRegistrationEnded();\r\nevent ProposalRegistered(uint proposalId);\r\nevent VotingSessionStarted();\r\nevent VotingSessionEnded();\r\nevent Voted (address voter, uint proposalId);\r\nevent VotesTallied();\r\nevent WorkflowStatusChange(WorkflowStatus previousStatus, WorkflowStatus newStatus);\r\n\r\n\r\n\r\n// ************************************************************ Functions ************************************************************ \r\n\r\n// Admin only can add users in whitelist\r\nfunction registeringUsers(address _address) public onlyOwner {\r\n    \r\n    require(!_voters[_address].isRegistered,\"Existing Address !\");\r\n    \r\n    require (_workflowStatus != WorkflowStatus.ProposalsRegistrationStarted \r\n                && _workflowStatus != WorkflowStatus.ProposalsRegistrationEnded\r\n                && _workflowStatus != WorkflowStatus.VotingSessionStarted\r\n                && _workflowStatus != WorkflowStatus.VotingSessionEnded\r\n                );\r\n    \r\n    _workflowStatus = WorkflowStatus.RegisteringVoters;\r\n    \r\n    Voter memory voter = Voter(true,false,0);\r\n    _voters[_address] = voter;\r\n\r\n    votersAddresses.push(_address);\r\n    \r\n    //fire event\r\n    emit VoterRegistered(_address);\r\n}\r\n\r\n\r\n// function openProposaRegistration allow admin to open the Proposal registration\r\n// Admin only can open proposal session\r\n// Warning : openProposaRegistration remove proposals and voters !\r\nfunction openProposaRegistration() public onlyOwner {\r\n    \r\n    _workflowStatus = WorkflowStatus.ProposalsRegistrationStarted; //open registration\r\n    \r\n    //Clean up the new Proposal session\r\n    delete proposals; //clean proposals to start the new proposal registration\r\n\r\n    //fire Events\r\n    emit ProposalsRegistrationStarted(); \r\n    emit WorkflowStatusChange(WorkflowStatus.ProposalsRegistrationEnded, WorkflowStatus.ProposalsRegistrationStarted);\r\n}\r\n\r\n// function closeProposalRegistration allow admin to close the Proposal registration\r\n// Admin only can close proposal session\r\nfunction closeProposalRegistration() public onlyOwner{\r\n    \r\n    require(_workflowStatus == WorkflowStatus.ProposalsRegistrationStarted,\"Session need to be opened !\");\r\n    require(proposals.length>0,\"Cannot close Session without proposal !\");\r\n   \r\n   _workflowStatus = WorkflowStatus.ProposalsRegistrationEnded; //close registration\r\n    \r\n    //fire Events\r\n    emit ProposalsRegistrationEnded(); \r\n    emit WorkflowStatusChange(WorkflowStatus.ProposalsRegistrationStarted, WorkflowStatus.ProposalsRegistrationEnded);\r\n}\r\n\r\n// User make a proposal\r\n// - description : string to set the proposal libelle\r\nfunction makeProposal(string memory description) public {\r\n    \r\n    require(_workflowStatus == WorkflowStatus.ProposalsRegistrationStarted, \"Proposal Session not opened\"); //check if session is open by admin to make a proposal\r\n    require(_voters[msg.sender].isRegistered,\"Action not allowed for this address\"); //check if caller is allowed in whitelist \r\n   \r\n    Proposal memory prop = Proposal(description, 0);\r\n    proposals.push(prop);\r\n    \r\n    emit ProposalRegistered(proposals.length);\r\n}\r\n\r\n\r\n// Admin only can open a vote session\r\nfunction openVoteSession() public onlyOwner{\r\n \r\n    //require(_workflowStatus == WorkflowStatus.ProposalsRegistrationEnded, \"Proposal Session need to be closed\");\r\n    \r\n    _workflowStatus = WorkflowStatus.VotingSessionStarted;\r\n    \r\n    //fire Events\r\n    emit VotingSessionStarted();\r\n    emit WorkflowStatusChange(WorkflowStatus.ProposalsRegistrationEnded, WorkflowStatus.VotingSessionStarted);\r\n}\r\n\r\n\r\n// Admin only can close a vote session\r\nfunction closeVoteSession() public onlyOwner {\r\n    \r\n    require(_workflowStatus == WorkflowStatus.VotingSessionStarted, \"Voting Session not started\");\r\n    \r\n     _workflowStatus = WorkflowStatus.VotingSessionEnded;\r\n    \r\n    //fire Events\r\n    emit VotingSessionEnded();\r\n    emit WorkflowStatusChange(WorkflowStatus.VotingSessionStarted, WorkflowStatus.VotingSessionEnded);\r\n}\r\n\r\n\r\n//Elector Vote for a selected proposal\r\nfunction voteForProposal(uint _proposalId) public {\r\n    \r\n    require(_voters[msg.sender].isRegistered,\"Action not allowed for this address\"); //check if caller is allowed in whitelist \r\n    require(_workflowStatus == WorkflowStatus.VotingSessionStarted, \"Voting Session not started\");\r\n    require(!_voters[msg.sender].hasVoted,\"Vote alredy done\"); //check if user has already vote for this session\r\n    require(_proposalId<=proposals.length,\"Proposal not found\"); //check if _proposalId exists\r\n    \r\n    //Proposal receive a vote\r\n    proposals[_proposalId].voteCount++;\r\n    \r\n    //Voter has now vote and cannot vote again\r\n    _voters[msg.sender].hasVoted = true;\r\n    \r\n     //fire events\r\n    emit Voted(msg.sender, _proposalId);\r\n}\r\n\r\n\r\n\r\n//Compute result after voting\r\nfunction processVoteResults() public onlyOwner  {\r\n    \r\n    require(_workflowStatus == WorkflowStatus.VotingSessionEnded, \"Voting Session not ended !\");\r\n    \r\n    _workflowStatus = WorkflowStatus.VotesTallied;\r\n    \r\n    //loop on proposals\r\n    uint maxVotecount = 0;\r\n    for(uint cptPr=0;cptPr<proposals.length;cptPr++){\r\n        if(proposals[cptPr].voteCount>maxVotecount){\r\n            maxVotecount = proposals[cptPr].voteCount;\r\n            winningProposalId = cptPr;\r\n\r\n            winningProposal = proposals[winningProposalId];\r\n        }\r\n    }\r\n    \r\n     //fire events\r\n    emit VotesTallied();\r\n    emit WorkflowStatusChange(WorkflowStatus.VotingSessionEnded, WorkflowStatus.VotesTallied);\r\n}\r\n\r\n\r\n// Get the Winning proposal\r\n// Vote session need to be closed\r\nfunction getWinningProposal() public view returns (Proposal memory){\r\n    require(_workflowStatus == WorkflowStatus.VotesTallied,\"Vote need to be Tallied\");\r\n    \r\n    return proposals[winningProposalId];\r\n}\r\n\r\n// Following functions are used for dapp\r\n\r\n// Return the current workflow status\r\nfunction getCurrentWorkflowStatus() public view returns (WorkflowStatus) {\r\n    return  _workflowStatus;\r\n}\r\n\r\n//Retrun proposals\r\nfunction getProposals() public view returns(Proposal[] memory){\r\n    return proposals;\r\n}\r\n\r\n//Return voters adresses\r\nfunction getVotersAdresses() public view returns(address[] memory){\r\n    return votersAddresses;\r\n}\r\n\r\nfunction getVoter(address _address) public view returns(Voter memory) {\r\n    return _voters[_address];\r\n}\r\n\r\n\r\n}// end of smart contract",
  "sourcePath": "I:\\Developpement\\GIT\\GitHub\\Alyra\\Exos\\DEFI_02\\contracts\\Voting.sol",
  "compiler": {
    "name": "solc",
    "version": "0.8.9+commit.e5eed63a.Emscripten.clang"
  },
  "schemaVersion": "3.4.3",
  "updatedAt": "2021-11-11T10:07:21.875Z",
  "networkType": "ethereum",
  "devdoc": {
    "author": "Stphane Dorlac",
    "kind": "dev",
    "methods": {
      "owner()": {
        "details": "Returns the address of the current owner."
      },
      "renounceOwnership()": {
        "details": "Leaves the contract without owner. It will not be possible to call `onlyOwner` functions anymore. Can only be called by the current owner. NOTE: Renouncing ownership will leave the contract without an owner, thereby removing any functionality that is only available to the owner."
      },
      "transferOwnership(address)": {
        "details": "Transfers ownership of the contract to a new account (`newOwner`). Can only be called by the current owner."
      }
    },
    "title": "Formation Alyra \"Dfi 02 - Systme de vote\"",
    "version": 1
  },
  "userdoc": {
    "kind": "user",
    "methods": {},
    "version": 1
  }
}