{
  "contractName": "Voting",
  "abi": [
    {
      "anonymous": false,
      "inputs": [
        {
          "indexed": true,
          "internalType": "address",
          "name": "previousOwner",
          "type": "address"
        },
        {
          "indexed": true,
          "internalType": "address",
          "name": "newOwner",
          "type": "address"
        }
      ],
      "name": "OwnershipTransferred",
      "type": "event"
    },
    {
      "anonymous": false,
      "inputs": [
        {
          "indexed": false,
          "internalType": "uint256",
          "name": "proposalId",
          "type": "uint256"
        }
      ],
      "name": "ProposalRegistered",
      "type": "event"
    },
    {
      "anonymous": false,
      "inputs": [],
      "name": "ProposalsRegistrationEnded",
      "type": "event"
    },
    {
      "anonymous": false,
      "inputs": [],
      "name": "ProposalsRegistrationStarted",
      "type": "event"
    },
    {
      "anonymous": false,
      "inputs": [
        {
          "indexed": false,
          "internalType": "address",
          "name": "voter",
          "type": "address"
        },
        {
          "indexed": false,
          "internalType": "uint256",
          "name": "proposalId",
          "type": "uint256"
        }
      ],
      "name": "Voted",
      "type": "event"
    },
    {
      "anonymous": false,
      "inputs": [
        {
          "indexed": false,
          "internalType": "address",
          "name": "voterAddress",
          "type": "address"
        }
      ],
      "name": "VoterRegistered",
      "type": "event"
    },
    {
      "anonymous": false,
      "inputs": [],
      "name": "VotesTallied",
      "type": "event"
    },
    {
      "anonymous": false,
      "inputs": [],
      "name": "VotingSessionEnded",
      "type": "event"
    },
    {
      "anonymous": false,
      "inputs": [],
      "name": "VotingSessionStarted",
      "type": "event"
    },
    {
      "anonymous": false,
      "inputs": [
        {
          "indexed": false,
          "internalType": "enum Voting.WorkflowStatus",
          "name": "previousStatus",
          "type": "uint8"
        },
        {
          "indexed": false,
          "internalType": "enum Voting.WorkflowStatus",
          "name": "newStatus",
          "type": "uint8"
        }
      ],
      "name": "WorkflowStatusChange",
      "type": "event"
    },
    {
      "inputs": [],
      "name": "owner",
      "outputs": [
        {
          "internalType": "address",
          "name": "",
          "type": "address"
        }
      ],
      "stateMutability": "view",
      "type": "function",
      "constant": true
    },
    {
      "inputs": [
        {
          "internalType": "uint256",
          "name": "",
          "type": "uint256"
        }
      ],
      "name": "proposals",
      "outputs": [
        {
          "internalType": "string",
          "name": "description",
          "type": "string"
        },
        {
          "internalType": "uint256",
          "name": "voteCount",
          "type": "uint256"
        }
      ],
      "stateMutability": "view",
      "type": "function",
      "constant": true
    },
    {
      "inputs": [],
      "name": "renounceOwnership",
      "outputs": [],
      "stateMutability": "nonpayable",
      "type": "function"
    },
    {
      "inputs": [
        {
          "internalType": "address",
          "name": "newOwner",
          "type": "address"
        }
      ],
      "name": "transferOwnership",
      "outputs": [],
      "stateMutability": "nonpayable",
      "type": "function"
    },
    {
      "inputs": [],
      "name": "winningProposal",
      "outputs": [
        {
          "internalType": "string",
          "name": "description",
          "type": "string"
        },
        {
          "internalType": "uint256",
          "name": "voteCount",
          "type": "uint256"
        }
      ],
      "stateMutability": "view",
      "type": "function",
      "constant": true
    },
    {
      "inputs": [
        {
          "internalType": "address",
          "name": "_address",
          "type": "address"
        }
      ],
      "name": "registeringUsers",
      "outputs": [],
      "stateMutability": "nonpayable",
      "type": "function"
    },
    {
      "inputs": [],
      "name": "cleanVote",
      "outputs": [],
      "stateMutability": "nonpayable",
      "type": "function"
    },
    {
      "inputs": [],
      "name": "openProposaRegistration",
      "outputs": [],
      "stateMutability": "nonpayable",
      "type": "function"
    },
    {
      "inputs": [],
      "name": "closeProposalRegistration",
      "outputs": [],
      "stateMutability": "nonpayable",
      "type": "function"
    },
    {
      "inputs": [
        {
          "internalType": "string",
          "name": "description",
          "type": "string"
        }
      ],
      "name": "makeProposal",
      "outputs": [],
      "stateMutability": "nonpayable",
      "type": "function"
    },
    {
      "inputs": [],
      "name": "openVoteSession",
      "outputs": [],
      "stateMutability": "nonpayable",
      "type": "function"
    },
    {
      "inputs": [],
      "name": "closeVoteSession",
      "outputs": [],
      "stateMutability": "nonpayable",
      "type": "function"
    },
    {
      "inputs": [
        {
          "internalType": "uint256",
          "name": "_proposalId",
          "type": "uint256"
        }
      ],
      "name": "voteForProposal",
      "outputs": [],
      "stateMutability": "nonpayable",
      "type": "function"
    },
    {
      "inputs": [],
      "name": "processVoteResults",
      "outputs": [],
      "stateMutability": "nonpayable",
      "type": "function"
    },
    {
      "inputs": [],
      "name": "getWinningProposal",
      "outputs": [
        {
          "components": [
            {
              "internalType": "string",
              "name": "description",
              "type": "string"
            },
            {
              "internalType": "uint256",
              "name": "voteCount",
              "type": "uint256"
            }
          ],
          "internalType": "struct Voting.Proposal",
          "name": "",
          "type": "tuple"
        }
      ],
      "stateMutability": "view",
      "type": "function",
      "constant": true
    },
    {
      "inputs": [],
      "name": "getCurrentWorkflowStatus",
      "outputs": [
        {
          "internalType": "enum Voting.WorkflowStatus",
          "name": "",
          "type": "uint8"
        }
      ],
      "stateMutability": "view",
      "type": "function",
      "constant": true
    },
    {
      "inputs": [],
      "name": "getProposals",
      "outputs": [
        {
          "components": [
            {
              "internalType": "string",
              "name": "description",
              "type": "string"
            },
            {
              "internalType": "uint256",
              "name": "voteCount",
              "type": "uint256"
            }
          ],
          "internalType": "struct Voting.Proposal[]",
          "name": "",
          "type": "tuple[]"
        }
      ],
      "stateMutability": "view",
      "type": "function",
      "constant": true
    },
    {
      "inputs": [],
      "name": "getVotersAdresses",
      "outputs": [
        {
          "internalType": "address[]",
          "name": "",
          "type": "address[]"
        }
      ],
      "stateMutability": "view",
      "type": "function",
      "constant": true
    },
    {
      "inputs": [
        {
          "internalType": "address",
          "name": "_address",
          "type": "address"
        }
      ],
      "name": "getVoter",
      "outputs": [
        {
          "components": [
            {
              "internalType": "bool",
              "name": "isRegistered",
              "type": "bool"
            },
            {
              "internalType": "bool",
              "name": "hasVoted",
              "type": "bool"
            },
            {
              "internalType": "uint256",
              "name": "votedProposalId",
              "type": "uint256"
            }
          ],
          "internalType": "struct Voting.Voter",
          "name": "",
          "type": "tuple"
        }
      ],
      "stateMutability": "view",
      "type": "function",
      "constant": true
    }
  ],
  "bytecode": "0x60806040523480156200001157600080fd5b50620000446200002f6200004a640100000000026401000000009004565b62000052640100000000026401000000009004565b62000116565b600033905090565b60008060009054906101000a900473ffffffffffffffffffffffffffffffffffffffff169050816000806101000a81548173ffffffffffffffffffffffffffffffffffffffff021916908373ffffffffffffffffffffffffffffffffffffffff1602179055508173ffffffffffffffffffffffffffffffffffffffff168173ffffffffffffffffffffffffffffffffffffffff167f8be0079c531659141344cd1fd0a4f28419497f9722a3daafe3b4186f6b6457e060405160405180910390a35050565b612c7480620001266000396000f3fe608060405234801561001057600080fd5b506004361061013e576000357c0100000000000000000000000000000000000000000000000000000000900480637d919f68116100ca578063b72a70741161008e578063b72a70741461027f578063bd0434d41461029b578063d4f50f98146102b9578063d60a08eb146102e9578063f2fde38b146102f35761013e565b80637d919f68146102115780638da5cb5b1461021b578063a513462014610239578063ab014bda14610257578063af7c41a0146102615761013e565b806351462a2a1161011157806351462a2a146101a4578063609ff1bd146101ae57806362564c48146101cd578063715018a6146101eb5780637aa503c1146101f55761013e565b8063013cf08b14610143578063045c6ce01461017457806307fa315f146101905780632e3af1131461019a575b600080fd5b61015d60048036038101906101589190611e4c565b61030f565b60405161016b929190611f21565b60405180910390f35b61018e60048036038101906101899190611e4c565b6103cb565b005b610198610679565b005b6101a2610847565b005b6101ac610965565b005b6101b6610b1b565b6040516101c4929190611f21565b60405180910390f35b6101d5610bb5565b6040516101e291906120a9565b60405180910390f35b6101f3610cb0565b005b61020f600480360381019061020a9190612129565b610d38565b005b6102196110c1565b005b610223611247565b6040516102309190612165565b60405180910390f35b610241611270565b60405161024e91906121bd565b60405180910390f35b61025f6113bd565b005b6102696114cd565b6040516102769190612256565b60405180910390f35b610299600480360381019061029491906123a6565b6114e4565b005b6102a3611698565b6040516102b091906124ad565b60405180910390f35b6102d360048036038101906102ce9190612129565b611726565b6040516102e0919061252c565b60405180910390f35b6102f16117bf565b005b61030d60048036038101906103089190612129565b611a1b565b005b6006818154811061031f57600080fd5b906000526020600020906002020160009150905080600001805461034290612576565b80601f016020809104026020016040519081016040528092919081815260200182805461036e90612576565b80156103bb5780601f10610390576101008083540402835291602001916103bb565b820191906000526020600020905b81548152906001019060200180831161039e57829003601f168201915b5050505050908060010154905082565b600160003373ffffffffffffffffffffffffffffffffffffffff1673ffffffffffffffffffffffffffffffffffffffff16815260200190815260200160002060000160009054906101000a900460ff1661045a576040517f08c379a00000000000000000000000000000000000000000000000000000000081526004016104519061261a565b60405180910390fd5b6003600581111561046e5761046d6121df565b5b600760009054906101000a900460ff1660058111156104905761048f6121df565b5b146104d0576040517f08c379a00000000000000000000000000000000000000000000000000000000081526004016104c790612686565b60405180910390fd5b600160003373ffffffffffffffffffffffffffffffffffffffff1673ffffffffffffffffffffffffffffffffffffffff16815260200190815260200160002060000160019054906101000a900460ff1615610560576040517f08c379a0000000000000000000000000000000000000000000000000000000008152600401610557906126f2565b60405180910390fd5b6006805490508111156105a8576040517f08c379a000000000000000000000000000000000000000000000000000000000815260040161059f9061275e565b60405180910390fd5b600681815481106105bc576105bb61277e565b5b906000526020600020906002020160010160008154809291906105de906127dc565b919050555060018060003373ffffffffffffffffffffffffffffffffffffffff1673ffffffffffffffffffffffffffffffffffffffff16815260200190815260200160002060000160016101000a81548160ff0219169083151502179055507f4d99b957a2bc29a30ebd96a7be8e68fe50a3c701db28a91436490b7d53870ca4338260405161066e929190612825565b60405180910390a150565b610681611b13565b73ffffffffffffffffffffffffffffffffffffffff1661069f611247565b73ffffffffffffffffffffffffffffffffffffffff16146106f5576040517f08c379a00000000000000000000000000000000000000000000000000000000081526004016106ec9061289a565b60405180910390fd5b60016005811115610709576107086121df565b5b600760009054906101000a900460ff16600581111561072b5761072a6121df565b5b1461076b576040517f08c379a000000000000000000000000000000000000000000000000000000000815260040161076290612906565b60405180910390fd5b6000600680549050116107b3576040517f08c379a00000000000000000000000000000000000000000000000000000000081526004016107aa90612998565b60405180910390fd5b6002600760006101000a81548160ff021916908360058111156107d9576107d86121df565b5b02179055507f240cb87b2e4df4c318e72bd714d45a9cad60249e883ff56b1fffd83a4595a8fa60405160405180910390a17f0a97a4ee45751e2abf3e4fc8946939630b11b371ea8ae39ccdc3056e98f5cc3f6001600260405161083d9291906129b8565b60405180910390a1565b61084f611b13565b73ffffffffffffffffffffffffffffffffffffffff1661086d611247565b73ffffffffffffffffffffffffffffffffffffffff16146108c3576040517f08c379a00000000000000000000000000000000000000000000000000000000081526004016108ba9061289a565b60405180910390fd5b6001600760006101000a81548160ff021916908360058111156108e9576108e86121df565b5b0217905550600660006108fc9190611bdf565b7f344c25562921d075a298d34b6dd1fd00d36ff293974539dfd4a8c625d9f0064c60405160405180910390a17f0a97a4ee45751e2abf3e4fc8946939630b11b371ea8ae39ccdc3056e98f5cc3f6002600160405161095b9291906129b8565b60405180910390a1565b61096d611b13565b73ffffffffffffffffffffffffffffffffffffffff1661098b611247565b73ffffffffffffffffffffffffffffffffffffffff16146109e1576040517f08c379a00000000000000000000000000000000000000000000000000000000081526004016109d89061289a565b60405180910390fd5b6004600080820160006109f49190611c03565b6001820160009055505060066000610a0c9190611bdf565b60005b600280549050811015610adf576001600060028381548110610a3457610a3361277e565b5b9060005260206000200160009054906101000a900473ffffffffffffffffffffffffffffffffffffffff1673ffffffffffffffffffffffffffffffffffffffff1673ffffffffffffffffffffffffffffffffffffffff168152602001908152602001600020600080820160006101000a81549060ff02191690556000820160016101000a81549060ff0219169055600182016000905550508080610ad7906127dc565b915050610a0f565b60026000610aed9190611c43565b6000600760006101000a81548160ff02191690836005811115610b1357610b126121df565b5b021790555050565b6004806000018054610b2c90612576565b80601f0160208091040260200160405190810160405280929190818152602001828054610b5890612576565b8015610ba55780601f10610b7a57610100808354040283529160200191610ba5565b820191906000526020600020905b815481529060010190602001808311610b8857829003601f168201915b5050505050908060010154905082565b60606006805480602002602001604051908101604052809291908181526020016000905b82821015610ca75783829060005260206000209060020201604051806040016040529081600082018054610c0c90612576565b80601f0160208091040260200160405190810160405280929190818152602001828054610c3890612576565b8015610c855780601f10610c5a57610100808354040283529160200191610c85565b820191906000526020600020905b815481529060010190602001808311610c6857829003601f168201915b5050505050815260200160018201548152505081526020019060010190610bd9565b50505050905090565b610cb8611b13565b73ffffffffffffffffffffffffffffffffffffffff16610cd6611247565b73ffffffffffffffffffffffffffffffffffffffff1614610d2c576040517f08c379a0000000000000000000000000000000000000000000000000000000008152600401610d239061289a565b60405180910390fd5b610d366000611b1b565b565b610d40611b13565b73ffffffffffffffffffffffffffffffffffffffff16610d5e611247565b73ffffffffffffffffffffffffffffffffffffffff1614610db4576040517f08c379a0000000000000000000000000000000000000000000000000000000008152600401610dab9061289a565b60405180910390fd5b600160008273ffffffffffffffffffffffffffffffffffffffff1673ffffffffffffffffffffffffffffffffffffffff16815260200190815260200160002060000160009054906101000a900460ff1615610e44576040517f08c379a0000000000000000000000000000000000000000000000000000000008152600401610e3b90612a2d565b60405180910390fd5b60016005811115610e5857610e576121df565b5b600760009054906101000a900460ff166005811115610e7a57610e796121df565b5b14158015610ebc575060026005811115610e9757610e966121df565b5b600760009054906101000a900460ff166005811115610eb957610eb86121df565b5b14155b8015610efc575060036005811115610ed757610ed66121df565b5b600760009054906101000a900460ff166005811115610ef957610ef86121df565b5b14155b8015610f3c575060046005811115610f1757610f166121df565b5b600760009054906101000a900460ff166005811115610f3957610f386121df565b5b14155b610f4557600080fd5b6000600760006101000a81548160ff02191690836005811115610f6b57610f6a6121df565b5b0217905550600060405180606001604052806001151581526020016000151581526020016000815250905080600160008473ffffffffffffffffffffffffffffffffffffffff1673ffffffffffffffffffffffffffffffffffffffff16815260200190815260200160002060008201518160000160006101000a81548160ff02191690831515021790555060208201518160000160016101000a81548160ff021916908315150217905550604082015181600101559050506002829080600181540180825580915050600190039060005260206000200160009091909190916101000a81548173ffffffffffffffffffffffffffffffffffffffff021916908373ffffffffffffffffffffffffffffffffffffffff1602179055507fb6be2187d059cc2a55fe29e0e503b566e1e0f8c8780096e185429350acffd3dd826040516110b59190612165565b60405180910390a15050565b6110c9611b13565b73ffffffffffffffffffffffffffffffffffffffff166110e7611247565b73ffffffffffffffffffffffffffffffffffffffff161461113d576040517f08c379a00000000000000000000000000000000000000000000000000000000081526004016111349061289a565b60405180910390fd5b60036005811115611151576111506121df565b5b600760009054906101000a900460ff166005811115611173576111726121df565b5b146111b3576040517f08c379a00000000000000000000000000000000000000000000000000000000081526004016111aa90612686565b60405180910390fd5b6004600760006101000a81548160ff021916908360058111156111d9576111d86121df565b5b02179055507fc379d349a6301baf50fb2f98d829f4ae10b1cdb7c66f4e4d8117302df7b8cd4c60405160405180910390a17f0a97a4ee45751e2abf3e4fc8946939630b11b371ea8ae39ccdc3056e98f5cc3f6003600460405161123d9291906129b8565b60405180910390a1565b60008060009054906101000a900473ffffffffffffffffffffffffffffffffffffffff16905090565b611278611c64565b60058081111561128b5761128a6121df565b5b600760009054906101000a900460ff1660058111156112ad576112ac6121df565b5b146112ed576040517f08c379a00000000000000000000000000000000000000000000000000000000081526004016112e490612a99565b60405180910390fd5b6006600354815481106113035761130261277e565b5b906000526020600020906002020160405180604001604052908160008201805461132c90612576565b80601f016020809104026020016040519081016040528092919081815260200182805461135890612576565b80156113a55780601f1061137a576101008083540402835291602001916113a5565b820191906000526020600020905b81548152906001019060200180831161138857829003601f168201915b50505050508152602001600182015481525050905090565b6113c5611b13565b73ffffffffffffffffffffffffffffffffffffffff166113e3611247565b73ffffffffffffffffffffffffffffffffffffffff1614611439576040517f08c379a00000000000000000000000000000000000000000000000000000000081526004016114309061289a565b60405180910390fd5b6003600760006101000a81548160ff0219169083600581111561145f5761145e6121df565b5b02179055507f1b8e19a458c1bcd88553332c518cc5c4e2d5793e712ee766d4f1c14f672ef1f560405160405180910390a17f0a97a4ee45751e2abf3e4fc8946939630b11b371ea8ae39ccdc3056e98f5cc3f600260036040516114c39291906129b8565b60405180910390a1565b6000600760009054906101000a900460ff16905090565b600160058111156114f8576114f76121df565b5b600760009054906101000a900460ff16600581111561151a576115196121df565b5b1461155a576040517f08c379a000000000000000000000000000000000000000000000000000000000815260040161155190612b05565b60405180910390fd5b600160003373ffffffffffffffffffffffffffffffffffffffff1673ffffffffffffffffffffffffffffffffffffffff16815260200190815260200160002060000160009054906101000a900460ff166115e9576040517f08c379a00000000000000000000000000000000000000000000000000000000081526004016115e09061261a565b60405180910390fd5b60006040518060400160405280838152602001600081525090506006819080600181540180825580915050600190039060005260206000209060020201600090919091909150600082015181600001908051906020019061164b929190611c7e565b506020820151816001015550507f92e393e9b54e2f801d3ea4beb0c5e71a21cc34a5d34b77d0fb8a3aa1650dc18f60068054905060405161168c9190612b25565b60405180910390a15050565b6060600280548060200260200160405190810160405280929190818152602001828054801561171c57602002820191906000526020600020905b8160009054906101000a900473ffffffffffffffffffffffffffffffffffffffff1673ffffffffffffffffffffffffffffffffffffffff16815260200190600101908083116116d2575b5050505050905090565b61172e611d04565b600160008373ffffffffffffffffffffffffffffffffffffffff1673ffffffffffffffffffffffffffffffffffffffff1681526020019081526020016000206040518060600160405290816000820160009054906101000a900460ff161515151581526020016000820160019054906101000a900460ff161515151581526020016001820154815250509050919050565b6117c7611b13565b73ffffffffffffffffffffffffffffffffffffffff166117e5611247565b73ffffffffffffffffffffffffffffffffffffffff161461183b576040517f08c379a00000000000000000000000000000000000000000000000000000000081526004016118329061289a565b60405180910390fd5b6004600581111561184f5761184e6121df565b5b600760009054906101000a900460ff166005811115611871576118706121df565b5b146118b1576040517f08c379a00000000000000000000000000000000000000000000000000000000081526004016118a890612b8c565b60405180910390fd5b6005600760006101000a81548160ff021916908360058111156118d7576118d66121df565b5b02179055506000805b6006805490508110156119b05781600682815481106119025761190161277e565b5b906000526020600020906002020160010154111561199d576006818154811061192e5761192d61277e565b5b90600052602060002090600202016001015491508060038190555060066003548154811061195f5761195e61277e565b5b90600052602060002090600202016004600082018160000190805461198390612576565b61198e929190611d29565b50600182015481600101559050505b80806119a8906127dc565b9150506118e0565b507f0e5e95ff8725ab3e7a4b6b59998a4c344c2aa8d1485f5e60cb7f337768e6134760405160405180910390a17f0a97a4ee45751e2abf3e4fc8946939630b11b371ea8ae39ccdc3056e98f5cc3f60046005604051611a109291906129b8565b60405180910390a150565b611a23611b13565b73ffffffffffffffffffffffffffffffffffffffff16611a41611247565b73ffffffffffffffffffffffffffffffffffffffff1614611a97576040517f08c379a0000000000000000000000000000000000000000000000000000000008152600401611a8e9061289a565b60405180910390fd5b600073ffffffffffffffffffffffffffffffffffffffff168173ffffffffffffffffffffffffffffffffffffffff161415611b07576040517f08c379a0000000000000000000000000000000000000000000000000000000008152600401611afe90612c1e565b60405180910390fd5b611b1081611b1b565b50565b600033905090565b60008060009054906101000a900473ffffffffffffffffffffffffffffffffffffffff169050816000806101000a81548173ffffffffffffffffffffffffffffffffffffffff021916908373ffffffffffffffffffffffffffffffffffffffff1602179055508173ffffffffffffffffffffffffffffffffffffffff168173ffffffffffffffffffffffffffffffffffffffff167f8be0079c531659141344cd1fd0a4f28419497f9722a3daafe3b4186f6b6457e060405160405180910390a35050565b5080546000825560020290600052602060002090810190611c009190611db6565b50565b508054611c0f90612576565b6000825580601f10611c215750611c40565b601f016020900490600052602060002090810190611c3f9190611de5565b5b50565b5080546000825590600052602060002090810190611c619190611de5565b50565b604051806040016040528060608152602001600081525090565b828054611c8a90612576565b90600052602060002090601f016020900481019282611cac5760008555611cf3565b82601f10611cc557805160ff1916838001178555611cf3565b82800160010185558215611cf3579182015b82811115611cf2578251825591602001919060010190611cd7565b5b509050611d009190611de5565b5090565b6040518060600160405280600015158152602001600015158152602001600081525090565b828054611d3590612576565b90600052602060002090601f016020900481019282611d575760008555611da5565b82601f10611d685780548555611da5565b82800160010185558215611da557600052602060002091601f016020900482015b82811115611da4578254825591600101919060010190611d89565b5b509050611db29190611de5565b5090565b5b80821115611de15760008082016000611dd09190611c03565b600182016000905550600201611db7565b5090565b5b80821115611dfe576000816000905550600101611de6565b5090565b6000604051905090565b600080fd5b600080fd5b6000819050919050565b611e2981611e16565b8114611e3457600080fd5b50565b600081359050611e4681611e20565b92915050565b600060208284031215611e6257611e61611e0c565b5b6000611e7084828501611e37565b91505092915050565b600081519050919050565b600082825260208201905092915050565b60005b83811015611eb3578082015181840152602081019050611e98565b83811115611ec2576000848401525b50505050565b6000601f19601f8301169050919050565b6000611ee482611e79565b611eee8185611e84565b9350611efe818560208601611e95565b611f0781611ec8565b840191505092915050565b611f1b81611e16565b82525050565b60006040820190508181036000830152611f3b8185611ed9565b9050611f4a6020830184611f12565b9392505050565b600081519050919050565b600082825260208201905092915050565b6000819050602082019050919050565b600082825260208201905092915050565b6000611f9982611e79565b611fa38185611f7d565b9350611fb3818560208601611e95565b611fbc81611ec8565b840191505092915050565b611fd081611e16565b82525050565b60006040830160008301518482036000860152611ff38282611f8e565b91505060208301516120086020860182611fc7565b508091505092915050565b600061201f8383611fd6565b905092915050565b6000602082019050919050565b600061203f82611f51565b6120498185611f5c565b93508360208202850161205b85611f6d565b8060005b8581101561209757848403895281516120788582612013565b945061208383612027565b925060208a0199505060018101905061205f565b50829750879550505050505092915050565b600060208201905081810360008301526120c38184612034565b905092915050565b600073ffffffffffffffffffffffffffffffffffffffff82169050919050565b60006120f6826120cb565b9050919050565b612106816120eb565b811461211157600080fd5b50565b600081359050612123816120fd565b92915050565b60006020828403121561213f5761213e611e0c565b5b600061214d84828501612114565b91505092915050565b61215f816120eb565b82525050565b600060208201905061217a6000830184612156565b92915050565b6000604083016000830151848203600086015261219d8282611f8e565b91505060208301516121b26020860182611fc7565b508091505092915050565b600060208201905081810360008301526121d78184612180565b905092915050565b7f4e487b7100000000000000000000000000000000000000000000000000000000600052602160045260246000fd5b6006811061221f5761221e6121df565b5b50565b60008190506122308261220e565b919050565b600061224082612222565b9050919050565b61225081612235565b82525050565b600060208201905061226b6000830184612247565b92915050565b600080fd5b600080fd5b7f4e487b7100000000000000000000000000000000000000000000000000000000600052604160045260246000fd5b6122b382611ec8565b810181811067ffffffffffffffff821117156122d2576122d161227b565b5b80604052505050565b60006122e5611e02565b90506122f182826122aa565b919050565b600067ffffffffffffffff8211156123115761231061227b565b5b61231a82611ec8565b9050602081019050919050565b82818337600083830152505050565b6000612349612344846122f6565b6122db565b90508281526020810184848401111561236557612364612276565b5b612370848285612327565b509392505050565b600082601f83011261238d5761238c612271565b5b813561239d848260208601612336565b91505092915050565b6000602082840312156123bc576123bb611e0c565b5b600082013567ffffffffffffffff8111156123da576123d9611e11565b5b6123e684828501612378565b91505092915050565b600081519050919050565b600082825260208201905092915050565b6000819050602082019050919050565b612424816120eb565b82525050565b6000612436838361241b565b60208301905092915050565b6000602082019050919050565b600061245a826123ef565b61246481856123fa565b935061246f8361240b565b8060005b838110156124a0578151612487888261242a565b975061249283612442565b925050600181019050612473565b5085935050505092915050565b600060208201905081810360008301526124c7818461244f565b905092915050565b60008115159050919050565b6124e4816124cf565b82525050565b60608201600082015161250060008501826124db565b50602082015161251360208501826124db565b5060408201516125266040850182611fc7565b50505050565b600060608201905061254160008301846124ea565b92915050565b7f4e487b7100000000000000000000000000000000000000000000000000000000600052602260045260246000fd5b6000600282049050600182168061258e57607f821691505b602082108114156125a2576125a1612547565b5b50919050565b7f416374696f6e206e6f7420616c6c6f77656420666f722074686973206164647260008201527f6573730000000000000000000000000000000000000000000000000000000000602082015250565b6000612604602383611e84565b915061260f826125a8565b604082019050919050565b60006020820190508181036000830152612633816125f7565b9050919050565b7f566f74696e672053657373696f6e206e6f742073746172746564000000000000600082015250565b6000612670601a83611e84565b915061267b8261263a565b602082019050919050565b6000602082019050818103600083015261269f81612663565b9050919050565b7f566f746520616c7265647920646f6e6500000000000000000000000000000000600082015250565b60006126dc601083611e84565b91506126e7826126a6565b602082019050919050565b6000602082019050818103600083015261270b816126cf565b9050919050565b7f50726f706f73616c206e6f7420666f756e640000000000000000000000000000600082015250565b6000612748601283611e84565b915061275382612712565b602082019050919050565b600060208201905081810360008301526127778161273b565b9050919050565b7f4e487b7100000000000000000000000000000000000000000000000000000000600052603260045260246000fd5b7f4e487b7100000000000000000000000000000000000000000000000000000000600052601160045260246000fd5b60006127e782611e16565b91507fffffffffffffffffffffffffffffffffffffffffffffffffffffffffffffffff82141561281a576128196127ad565b5b600182019050919050565b600060408201905061283a6000830185612156565b6128476020830184611f12565b9392505050565b7f4f776e61626c653a2063616c6c6572206973206e6f7420746865206f776e6572600082015250565b6000612884602083611e84565b915061288f8261284e565b602082019050919050565b600060208201905081810360008301526128b381612877565b9050919050565b7f53657373696f6e206e65656420746f206265206f70656e656420210000000000600082015250565b60006128f0601b83611e84565b91506128fb826128ba565b602082019050919050565b6000602082019050818103600083015261291f816128e3565b9050919050565b7f43616e6e6f7420636c6f73652053657373696f6e20776974686f75742070726f60008201527f706f73616c202100000000000000000000000000000000000000000000000000602082015250565b6000612982602783611e84565b915061298d82612926565b604082019050919050565b600060208201905081810360008301526129b181612975565b9050919050565b60006040820190506129cd6000830185612247565b6129da6020830184612247565b9392505050565b7f4578697374696e67204164647265737320210000000000000000000000000000600082015250565b6000612a17601283611e84565b9150612a22826129e1565b602082019050919050565b60006020820190508181036000830152612a4681612a0a565b9050919050565b7f566f7465206e65656420746f2062652054616c6c696564000000000000000000600082015250565b6000612a83601783611e84565b9150612a8e82612a4d565b602082019050919050565b60006020820190508181036000830152612ab281612a76565b9050919050565b7f50726f706f73616c2053657373696f6e206e6f74206f70656e65640000000000600082015250565b6000612aef601b83611e84565b9150612afa82612ab9565b602082019050919050565b60006020820190508181036000830152612b1e81612ae2565b9050919050565b6000602082019050612b3a6000830184611f12565b92915050565b7f566f74696e672053657373696f6e206e6f7420656e6465642021000000000000600082015250565b6000612b76601a83611e84565b9150612b8182612b40565b602082019050919050565b60006020820190508181036000830152612ba581612b69565b9050919050565b7f4f776e61626c653a206e6577206f776e657220697320746865207a65726f206160008201527f6464726573730000000000000000000000000000000000000000000000000000602082015250565b6000612c08602683611e84565b9150612c1382612bac565b604082019050919050565b60006020820190508181036000830152612c3781612bfb565b905091905056fea264697066735822122060fe53d5af22e3c9280e6f81182d8ef4bf8aeed115cd93c4f9ae4f5a445c2c1d64736f6c63430008090033",
  "immutableReferences": {},
  "source": "// SPDX-License-Identifier: MIT\r\npragma solidity >=0.8.0;\r\n\r\n//External libs\r\nimport \"@OpenZeppelin/contracts/access/Ownable.sol\";\r\n\r\n/// @title Formation Alyra \"Dfi 02 - Systme de vote\"\r\n/// @author Stphane Dorlac\r\ncontract Voting is Ownable {\r\n    // ======  Entities  ======\r\n    struct Voter {\r\n        bool isRegistered;\r\n        bool hasVoted;\r\n        uint256 votedProposalId;\r\n    }\r\n\r\n    struct Proposal {\r\n        string description;\r\n        uint256 voteCount;\r\n    }\r\n\r\n    // ====== Enumerations ======\r\n    enum WorkflowStatus {\r\n        RegisteringVoters,\r\n        ProposalsRegistrationStarted,\r\n        ProposalsRegistrationEnded,\r\n        VotingSessionStarted,\r\n        VotingSessionEnded,\r\n        VotesTallied\r\n    }\r\n\r\n    // ====== variables ======\r\n    mapping(address => Voter) private _voters; //only users in whitelist can propose and vote\r\n    address[] private votersAddresses;\r\n    uint256 winningProposalId;\r\n    Proposal public winningProposal;\r\n    Proposal[] public proposals;\r\n    WorkflowStatus _workflowStatus;\r\n\r\n    // ====== Events ======\r\n    event VoterRegistered(address voterAddress);\r\n    event ProposalsRegistrationStarted();\r\n    event ProposalsRegistrationEnded();\r\n    event ProposalRegistered(uint256 proposalId);\r\n    event VotingSessionStarted();\r\n    event VotingSessionEnded();\r\n    event Voted(address voter, uint256 proposalId);\r\n    event VotesTallied();\r\n    event WorkflowStatusChange(\r\n        WorkflowStatus previousStatus,\r\n        WorkflowStatus newStatus\r\n    );\r\n\r\n    // ************************************************************ Functions ************************************************************\r\n\r\n    // Admin only can add users in whitelist\r\n    function registeringUsers(address _address) public onlyOwner {\r\n        require(!_voters[_address].isRegistered, \"Existing Address !\");\r\n\r\n        require(\r\n            _workflowStatus != WorkflowStatus.ProposalsRegistrationStarted &&\r\n                _workflowStatus != WorkflowStatus.ProposalsRegistrationEnded &&\r\n                _workflowStatus != WorkflowStatus.VotingSessionStarted &&\r\n                _workflowStatus != WorkflowStatus.VotingSessionEnded\r\n        );\r\n\r\n        _workflowStatus = WorkflowStatus.RegisteringVoters;\r\n\r\n        Voter memory voter = Voter(true, false, 0);\r\n        _voters[_address] = voter;\r\n\r\n        votersAddresses.push(_address);\r\n\r\n        //fire event\r\n        emit VoterRegistered(_address);\r\n    }\r\n\r\n    // function cleanVote allow admin to clean current vote\r\n    // Admin only can open proposal session\r\n    function cleanVote() public onlyOwner {\r\n        delete winningProposal;\r\n        delete proposals;\r\n\r\n        //to clean mapping we need to clean its values\r\n        uint256 counter;\r\n        for (counter = 0; counter < votersAddresses.length; counter++) {\r\n            delete _voters[votersAddresses[counter]];\r\n        }\r\n        delete votersAddresses;\r\n\r\n        //Reset Workflow\r\n        _workflowStatus = WorkflowStatus.RegisteringVoters;\r\n    }\r\n\r\n    // function openProposaRegistration allow admin to open the Proposal registration\r\n    // Admin only can open proposal session\r\n    // Warning : openProposaRegistration remove proposals and voters !\r\n    function openProposaRegistration() public onlyOwner {\r\n        _workflowStatus = WorkflowStatus.ProposalsRegistrationStarted; //open registration\r\n\r\n        //Clean up the new Proposal session\r\n        delete proposals; //clean proposals to start the new proposal registration\r\n\r\n        //fire Events\r\n        emit ProposalsRegistrationStarted();\r\n        emit WorkflowStatusChange(\r\n            WorkflowStatus.ProposalsRegistrationEnded,\r\n            WorkflowStatus.ProposalsRegistrationStarted\r\n        );\r\n    }\r\n\r\n    // function closeProposalRegistration allow admin to close the Proposal registration\r\n    // Admin only can close proposal session\r\n    function closeProposalRegistration() public onlyOwner {\r\n        require(\r\n            _workflowStatus == WorkflowStatus.ProposalsRegistrationStarted,\r\n            \"Session need to be opened !\"\r\n        );\r\n        require(\r\n            proposals.length > 0,\r\n            \"Cannot close Session without proposal !\"\r\n        );\r\n\r\n        _workflowStatus = WorkflowStatus.ProposalsRegistrationEnded; //close registration\r\n\r\n        //fire Events\r\n        emit ProposalsRegistrationEnded();\r\n        emit WorkflowStatusChange(\r\n            WorkflowStatus.ProposalsRegistrationStarted,\r\n            WorkflowStatus.ProposalsRegistrationEnded\r\n        );\r\n    }\r\n\r\n    // User make a proposal\r\n    // - description : string to set the proposal libelle\r\n    function makeProposal(string memory description) public {\r\n        require(\r\n            _workflowStatus == WorkflowStatus.ProposalsRegistrationStarted,\r\n            \"Proposal Session not opened\"\r\n        ); //check if session is open by admin to make a proposal\r\n        require(\r\n            _voters[msg.sender].isRegistered,\r\n            \"Action not allowed for this address\"\r\n        ); //check if caller is allowed in whitelist\r\n\r\n        Proposal memory prop = Proposal(description, 0);\r\n        proposals.push(prop);\r\n\r\n        emit ProposalRegistered(proposals.length);\r\n    }\r\n\r\n    // Admin only can open a vote session\r\n    function openVoteSession() public onlyOwner {\r\n        //require(_workflowStatus == WorkflowStatus.ProposalsRegistrationEnded, \"Proposal Session need to be closed\");\r\n\r\n        _workflowStatus = WorkflowStatus.VotingSessionStarted;\r\n\r\n        //fire Events\r\n        emit VotingSessionStarted();\r\n        emit WorkflowStatusChange(\r\n            WorkflowStatus.ProposalsRegistrationEnded,\r\n            WorkflowStatus.VotingSessionStarted\r\n        );\r\n    }\r\n\r\n    // Admin only can close a vote session\r\n    function closeVoteSession() public onlyOwner {\r\n        require(\r\n            _workflowStatus == WorkflowStatus.VotingSessionStarted,\r\n            \"Voting Session not started\"\r\n        );\r\n\r\n        _workflowStatus = WorkflowStatus.VotingSessionEnded;\r\n\r\n        //fire Events\r\n        emit VotingSessionEnded();\r\n        emit WorkflowStatusChange(\r\n            WorkflowStatus.VotingSessionStarted,\r\n            WorkflowStatus.VotingSessionEnded\r\n        );\r\n    }\r\n\r\n    //Elector Vote for a selected proposal\r\n    function voteForProposal(uint256 _proposalId) public {\r\n        require(\r\n            _voters[msg.sender].isRegistered,\r\n            \"Action not allowed for this address\"\r\n        ); //check if caller is allowed in whitelist\r\n        require(\r\n            _workflowStatus == WorkflowStatus.VotingSessionStarted,\r\n            \"Voting Session not started\"\r\n        );\r\n        require(!_voters[msg.sender].hasVoted, \"Vote alredy done\"); //check if user has already vote for this session\r\n        require(_proposalId <= proposals.length, \"Proposal not found\"); //check if _proposalId exists\r\n\r\n        //Proposal receive a vote\r\n        proposals[_proposalId].voteCount++;\r\n\r\n        //Voter has now vote and cannot vote again\r\n        _voters[msg.sender].hasVoted = true;\r\n\r\n        //fire events\r\n        emit Voted(msg.sender, _proposalId);\r\n    }\r\n\r\n    //Compute result after voting\r\n    function processVoteResults() public onlyOwner {\r\n        require(\r\n            _workflowStatus == WorkflowStatus.VotingSessionEnded,\r\n            \"Voting Session not ended !\"\r\n        );\r\n\r\n        _workflowStatus = WorkflowStatus.VotesTallied;\r\n\r\n        //loop on proposals\r\n        uint256 maxVotecount = 0;\r\n        for (uint256 cptPr = 0; cptPr < proposals.length; cptPr++) {\r\n            if (proposals[cptPr].voteCount > maxVotecount) {\r\n                maxVotecount = proposals[cptPr].voteCount;\r\n                winningProposalId = cptPr;\r\n\r\n                winningProposal = proposals[winningProposalId];\r\n            }\r\n        }\r\n\r\n        //fire events\r\n        emit VotesTallied();\r\n        emit WorkflowStatusChange(\r\n            WorkflowStatus.VotingSessionEnded,\r\n            WorkflowStatus.VotesTallied\r\n        );\r\n    }\r\n\r\n    // Get the Winning proposal\r\n    // Vote session need to be closed\r\n    function getWinningProposal() public view returns (Proposal memory) {\r\n        require(\r\n            _workflowStatus == WorkflowStatus.VotesTallied,\r\n            \"Vote need to be Tallied\"\r\n        );\r\n\r\n        return proposals[winningProposalId];\r\n    }\r\n\r\n    // Following functions are used for dapp\r\n\r\n    // Return the current workflow status\r\n    function getCurrentWorkflowStatus() public view returns (WorkflowStatus) {\r\n        return _workflowStatus;\r\n    }\r\n\r\n    //Retrun proposals\r\n    function getProposals() public view returns (Proposal[] memory) {\r\n        return proposals;\r\n    }\r\n\r\n    //Return voters adresses\r\n    function getVotersAdresses() public view returns (address[] memory) {\r\n        return votersAddresses;\r\n    }\r\n\r\n    function getVoter(address _address) public view returns (Voter memory) {\r\n        return _voters[_address];\r\n    }\r\n} // end of smart contract\r\n",
  "sourcePath": "I:\\Developpement\\GIT\\GitHub\\Alyra\\Exos\\DEFI_03\\contracts\\Voting.sol",
  "compiler": {
    "name": "solc",
    "version": "0.8.9+commit.e5eed63a.Emscripten.clang"
  },
  "schemaVersion": "3.4.3",
  "updatedAt": "2021-12-02T08:55:51.416Z",
  "networkType": "ethereum",
  "devdoc": {
    "author": "Stphane Dorlac",
    "kind": "dev",
    "methods": {
      "owner()": {
        "details": "Returns the address of the current owner."
      },
      "renounceOwnership()": {
        "details": "Leaves the contract without owner. It will not be possible to call `onlyOwner` functions anymore. Can only be called by the current owner. NOTE: Renouncing ownership will leave the contract without an owner, thereby removing any functionality that is only available to the owner."
      },
      "transferOwnership(address)": {
        "details": "Transfers ownership of the contract to a new account (`newOwner`). Can only be called by the current owner."
      }
    },
    "title": "Formation Alyra \"Dfi 02 - Systme de vote\"",
    "version": 1
  },
  "userdoc": {
    "kind": "user",
    "methods": {},
    "version": 1
  }
}