{
  "contractName": "HelloWorld",
  "abi": [
    {
      "inputs": [],
      "stateMutability": "nonpayable",
      "type": "constructor"
    },
    {
      "inputs": [],
      "name": "message",
      "outputs": [
        {
          "internalType": "string",
          "name": "",
          "type": "string"
        }
      ],
      "stateMutability": "view",
      "type": "function",
      "constant": true
    },
    {
      "inputs": [
        {
          "internalType": "string",
          "name": "newMessage",
          "type": "string"
        }
      ],
      "name": "update",
      "outputs": [],
      "stateMutability": "nonpayable",
      "type": "function"
    },
    {
      "inputs": [],
      "name": "hello",
      "outputs": [
        {
          "internalType": "string",
          "name": "",
          "type": "string"
        }
      ],
      "stateMutability": "view",
      "type": "function",
      "constant": true
    }
  ],
  "bytecode": "0x608060405234801561001057600080fd5b506040518060400160405280601f81526020017f48656c6c6f20576f726c642066726f6d20736d61727420636f6e7472616374008152506000908051906020019061005c929190610062565b50610166565b82805461006e90610134565b90600052602060002090601f01602090048101928261009057600085556100d7565b82601f106100a957805160ff19168380011785556100d7565b828001600101855582156100d7579182015b828111156100d65782518255916020019190600101906100bb565b5b5090506100e491906100e8565b5090565b5b808211156101015760008160009055506001016100e9565b5090565b7f4e487b7100000000000000000000000000000000000000000000000000000000600052602260045260246000fd5b6000600282049050600182168061014c57607f821691505b602082108114156101605761015f610105565b5b50919050565b61057c806101756000396000f3fe608060405234801561001057600080fd5b506004361061005e576000357c01000000000000000000000000000000000000000000000000000000009004806319ff1d21146100635780633d7403a314610081578063e21f37ce1461009d575b600080fd5b61006b6100bb565b6040516100789190610331565b60405180910390f35b61009b6004803603810190610096919061049c565b61014d565b005b6100a5610167565b6040516100b29190610331565b60405180910390f35b6060600080546100ca90610514565b80601f01602080910402602001604051908101604052809291908181526020018280546100f690610514565b80156101435780601f1061011857610100808354040283529160200191610143565b820191906000526020600020905b81548152906001019060200180831161012657829003601f168201915b5050505050905090565b80600090805190602001906101639291906101f5565b5050565b6000805461017490610514565b80601f01602080910402602001604051908101604052809291908181526020018280546101a090610514565b80156101ed5780601f106101c2576101008083540402835291602001916101ed565b820191906000526020600020905b8154815290600101906020018083116101d057829003601f168201915b505050505081565b82805461020190610514565b90600052602060002090601f016020900481019282610223576000855561026a565b82601f1061023c57805160ff191683800117855561026a565b8280016001018555821561026a579182015b8281111561026957825182559160200191906001019061024e565b5b509050610277919061027b565b5090565b5b8082111561029457600081600090555060010161027c565b5090565b600081519050919050565b600082825260208201905092915050565b60005b838110156102d25780820151818401526020810190506102b7565b838111156102e1576000848401525b50505050565b6000601f19601f8301169050919050565b600061030382610298565b61030d81856102a3565b935061031d8185602086016102b4565b610326816102e7565b840191505092915050565b6000602082019050818103600083015261034b81846102f8565b905092915050565b6000604051905090565b600080fd5b600080fd5b600080fd5b600080fd5b7f4e487b7100000000000000000000000000000000000000000000000000000000600052604160045260246000fd5b6103a9826102e7565b810181811067ffffffffffffffff821117156103c8576103c7610371565b5b80604052505050565b60006103db610353565b90506103e782826103a0565b919050565b600067ffffffffffffffff82111561040757610406610371565b5b610410826102e7565b9050602081019050919050565b82818337600083830152505050565b600061043f61043a846103ec565b6103d1565b90508281526020810184848401111561045b5761045a61036c565b5b61046684828561041d565b509392505050565b600082601f83011261048357610482610367565b5b813561049384826020860161042c565b91505092915050565b6000602082840312156104b2576104b161035d565b5b600082013567ffffffffffffffff8111156104d0576104cf610362565b5b6104dc8482850161046e565b91505092915050565b7f4e487b7100000000000000000000000000000000000000000000000000000000600052602260045260246000fd5b6000600282049050600182168061052c57607f821691505b602082108114156105405761053f6104e5565b5b5091905056fea2646970667358221220ac83020d1020216805392e0d1ba696970979592e16cc2877ec4bde2a157cefda64736f6c63430008090033",
  "immutableReferences": {},
  "source": "// Specifies the version of Solidity, using semantic versioning.\r\n// Learn more: https://solidity.readthedocs.io/en/v0.5.10/layout-of-source-files.html#pragma\r\npragma solidity >=0.7.0;\r\n\r\n// Defines a contract named `HelloWorld`.\r\n// A contract is a collection of functions and data (its state). Once deployed, a contract resides at a specific address on the Ethereum blockchain. Learn more: https://solidity.readthedocs.io/en/v0.5.10/structure-of-a-contract.html\r\ncontract HelloWorld {\r\n\r\n   // Declares a state variable `message` of type `string`.\r\n   // State variables are variables whose values are permanently stored in contract storage. The keyword `public` makes variables accessible from outside a contract and creates a function that other contracts or clients can call to access the value.\r\n   string public message;\r\n\r\n   // Similar to many class-based object-oriented languages, a constructor is a special function that is only executed upon contract creation.\r\n   // Constructors are used to initialize the contract's data. Learn more:https://solidity.readthedocs.io/en/v0.5.10/contracts.html#constructors\r\n   constructor() {\r\n      message = \"Hello World from smart contract\";\r\n   }\r\n\r\n   // A public function that accepts a string argument and updates the `message` storage variable.\r\n   function update(string memory newMessage) public {\r\n      message = newMessage;\r\n   }\r\n\r\n   function hello() view public returns(string memory) {\r\n       return message;\r\n   }\r\n}\r\n",
  "sourcePath": "I:\\Developpement\\GIT\\GitHub\\Alyra\\Exos\\SDO_TRUFFLE\\contracts\\HelloWorld.sol",
  "compiler": {
    "name": "solc",
    "version": "0.8.9+commit.e5eed63a.Emscripten.clang"
  },
  "schemaVersion": "3.4.3",
  "updatedAt": "2021-11-09T17:04:43.285Z",
  "networkType": "ethereum",
  "devdoc": {
    "kind": "dev",
    "methods": {},
    "version": 1
  },
  "userdoc": {
    "kind": "user",
    "methods": {},
    "version": 1
  }
}